S01600004C69667453696D756C6174696F6E2E737265635A
S11300000C942A000C94D2030C9447000C944700DF
S11300100C9447000C9447000C9447000C943C0447
S11300200C9447000C9447000C948D040C944700E6
S11300300C9447000C9406040C9447000C9447005D
S11300400C9447000C9447000C9447000C94470010
S11300500C94470011241FBECFE5D8E0DEBFCDBF0E
S113006010E0A0E6B0E0E8EFF9E002C005900D92E0
S1130070A638B107D9F721E0A6E8B0E001C01D9287
S1130080AE36B207E1F70E9449000C94FA040C94CE
S113009000000E94C1010E94B8018CED90E00E9412
S11300A0B30180E690E00E9416010E949F0380E065
S11300B090E008951F93CF93DF93D82F162FC82F66
S11300C0C295CF708C2F0E94B0018D2F6C2F0E948F
S11300D0EE04911108C0C11106C0212F4D2F62EC0E
S11300E081E00E94D301DF91CF911F910895262FC3
S11300F0482F62E082E00E94D3010895FC018181CF
S1130100813C29F48AE590E00E94AC010895823C88
S113011049F480E00E94B00163E970E080E690E079
S11301200E9406010895CF93DF93FC0121812130C1
S113013091F48281843078F4C0E6D0E08E836EEB53
S113014070E0CE010E9406018E8167E770E082951F
S1130150807F0E949801DF91CF910895FC018181F5
S11301600E94CF016091660080E20E947B0163E9F6
S113017070E080E690E00E9406010895CF93DF933B
S1130180EC0189810E94CF018981823091F48A81B6
S11301909B8189130EC0C0E6D0E082958F708E8358
S11301A06EEA70E0CE010E9406016E8180E10E9439
S11301B07B01DF91CF910895CF93DF93FC01908170
S11301C0913049F4C9E7D0E088E40E94CF018991D5
S11301D08111FBCF08C0923031F420E0418161E00D
S11301E080E20E94D301DF91CF910895F894809129
S11301F021018F5F80932101089580912101815015
S113020080932101811101C0789408950F931F9365
S1130210CF93DF93EC018B010E94F6001C830B83C8
S1130220DF91CF911F910F910C94FD00E091670035
S1130230F0916800A7E6B0E020E0E736F20729F085
S1130240DF010190F081E02DF7CF8D939C93DC01C9
S1130250ED93FC9308950F931F93CF93DF930E9424
S1130260F60090919F008091A000981759F084E0C7
S1130270989FE0011124CF55DF4F9F5F9F719093AA
S11302809F0002C0C0E0D0E00E94FD002097C9F0AA
S11302900091670010916800F0E007361F0789F0AD
S11302A0D80112969C9112978881892331F0139674
S11302B0ED91FC911497CE010995F801008111810B
S11302C0EBCFDF91CF911F910F91089512BE8BE078
S11302D083BF8DE78CBF89B7826089BF80E891E0D6
S11302E09BBD8ABD1DBC1CBC1FBC8DE08EBD89B7E7
S11302F0806189BF0895CF93DF93D82FC62F0E94C2
S1130300F6006C2F70E08D2F8073660F771FFB0152
S1130310EA59FE4F9081982311F494E09183FB01F4
S1130320EA59FE4F81608083DF91CF910C94FD00E8
S113033080936D001092700070937200609371004E
S113034090916C00981710F481E003C0891718F499
S11303508FEF809370000895BC0180E00C949801A5
S11303608093310108959093280180932701089583
S113037010BC8CE089B986E880BD88E98AB9789494
S113038008958FEF87BB84BB8ABB11BA0E94B80162
S113039085B7836085BF8BB780648BBF08958CB9A4
S11303A05D9BFECF08950F931F93CF93DF93C82FC8
S11303B0062FD42F122F0E94F6008091A000E82F60
S11303C0F0E0AF014F5F5F4F4F71552720919F00C1
S11303D030E04217530771F48FEF0E94CF0180E0A1
S11303E00E94CF018FEF0E94CF018EED0E94CF01BA
S11303F08DEAF9CFEE0FFF1FEE0FFF1FEF55FF4FF2
S113040001831383D283C0838F5F8F718093A00095
S1130410DF91CF911F910F910C94FD00DF92EF9229
S1130420FF920F931F93CF93DF93C6E6D1E000E0D2
S113043010E0EE24E394F12C8981811124C04881D9
S113044040FF23C04E7F4883202F65EC80E10E944B
S1130450D30188814091230184FF0AC09701002EB3
S113046001C0220F0A94EAF7242B209323010DC024
S1130470C701002E01C0880F0A94EAF780958423EF
S11304808093230102C0815089830F5F1F4F2296FE
S11304900430110589F6DF91CF911F910F91FF90E0
S11304A0EF90DF900895DB018230B1F58C91982FA5
S11304B09072282F2076D9F121E0382F307184FFF3
S11304C020E0992311F094E001C090E08F70890F2F
S11304D041E050E002C0440F551F8A95E2F7809135
S11304E0250190912601BA01609570958623972382
S11304F09093260180932501332351F080912501A7
S113050090912601842B952B9093260180932501AD
S113051067EC81E00C94D301833049F4E091270126
S1130520F0912801309719F0642FCD0109940895B2
S113053090919E00911105C080939E0010929D00A1
S1130540089540919D00411104C0825080939D0004
S113055015C0E0919C00E41798F421E02E0F20933D
S11305609C00F0E0E257FF4F8083421309C06EE81D
S113057070E0892F0E94530210929E0010929C00FA
S11305800895CF9380918C0090918D000196909363
S11305908D0080938C0083709927892B21F580919D
S11305A08B008F5F80938B008370A82FB0E0AA0F1D
S11305B0BB1FAA59BE4F1196EC9111979C9194FFC1
S11305C003C094E09E1BE92FF0E0ED58FF4F21E0BB
S11305D030E0A90102C0440F551F8A95E2F7CA0111
S11305E09081892B85BB80918A008F5F80938A00DC
S11305F020912B01222301F18370622F70E040E1EE
S113060050E0082E02C0440F551F0A94E2F7462317
S11306105723452B11F080932E01082E02C07595A7
S113062067950A94E2F760FD80932C01822F807F06
S113063019F090912F0101C091E02F7019F02091D1
S11306402D0101C021E080912A01811104C0309163
S11306506C003F7301C03FE380913201811103C0FC
S11306608091310101C087E080933001809129019C
S113067060E4869FA001112460E8969FC0011124C4
S1130680842B832B88BB80912E0198E0899FA00145
S1130690112490912C0130E2939FC0011124842BEA
S11306A030913001382B40E8249FC0011124832B62
S11306B08BBB90914401809145019817B9F00E9439
S11306C0F600E091440181E08E0F80934401F0E054
S11306D0EA5BFE4FC081809144018F718093440195
S11306E00E94FD008C2F0E949802E3CF8091880025
S11306F0909189009C012F5F3F4F30938900209394
S113070088008F3F9F40C9F4809122018823A9F07B
S113071084E00E94CF0186E00E94CF0185EA0E9416
S1130720CF018AE50E94CF01809124010E94CF016C
S113073080912301CF910C94CF01CF9108958AEC3D
S11307400E94CF0110922A0110922F0110923201BF
S113075010922D01109229011092670180E280937A
S11307606601109269018093680110926B01809375
S11307706A0110926D0180936C018FE180936C008B
S113078080936D000E94660120E040E061EC81E00E
S11307900E94D3018EEF0E94CF010E942B010E9480
S11307A0C102FBCF1F920F920FB60F9211242F9309
S11307B03F934F935F936F937F938F939F93AF93E5
S11307C0BF93EF93FF93809125019091260191604F
S11307D09093260180932501409125015091260193
S11307E020E069EC80E10E94D301FF91EF91BF9179
S11307F0AF919F918F917F916F915F914F913F91B5
S11308002F910F900FBE0F901F9018951F920F926B
S11308100FB60F9211242F933F938F939F93EF93CF
S1130820FF935F9B1EC0809145012091440190E09D
S113083001968F71992730E08217930789F08CB164
S1130840E091450191E09E0F90934501F0E0EA5B51
S1130850FE4F8083809145018F7180934501E1CFE4
S11308605798FF91EF919F918F913F912F910F9006
S11308700FBE0F901F9018951F920F920FB60F92F4
S113088011242F933F934F935F936F937F938F9391
S11308909F93AF93BF93EF93FF93809187008F5FF4
S11308A080938700909186009F5F9093860060916B
S11308B06E000E94EE04911114C090916C0060913E
S11308C06D00961761F080917000890F80936C0021
S11308D0E0917100F0917200309709F0099510923F
S11308E08700809186006CE00E94EE04911104C0A0
S11308F0109286000E940E02FF91EF91BF91AF917A
S11309009F918F917F916F915F914F913F912F9123
S11309100F900FBE0F901F9018951F920F920FB655
S11309200F921124CF92DF92FF920F931F932F9374
S11309303F934F935F936F937F938F939F93AF9363
S1130940BF93CF93DF93EF93FF9303E311E0C0E0F2
S1130950D0E0CC24C394D12CF09043018F2D90E0AF
S11309600C2E02C0959587950A94E2F780FF18C073
S1130970F80180819181019791838083892B81F48F
S113098020E040E068EC81E00E94D301C6010C2E17
S113099001C0880F0A94EAF78095F822F092430187
S11309A021960E5F1F4FC830D105B1F6FF91EF912C
S11309B0DF91CF91BF91AF919F918F917F916F9173
S11309C05F914F913F912F911F910F91FF90DF9075
S11309D0CF900F900FBE0F901F901895991B79E040
S11309E004C0991F961708F0961B881F7A95C9F7BB
S10B09F080950895F894FFCFEF
S11309F80000FF7E00020067000000001F000400E2
S1130A08FF000000103070F048656C6C6F2D576F54
S1090A18726C640A000088
S9030000FC
