S01600004C69667453696D756C6174696F6E2E737265635A
S11300000C942A000C9406050C9447000C944700A9
S11300100C9447000C9447000C9447000C94700512
S11300200C9447000C9447000C94F8050C9447007A
S11300300C9447000C943A050C9447000C94470028
S11300400C9447000C9447000C9447000C94470010
S11300500C94470011241FBECFE5D8E0DEBFCDBF0E
S113006010E0A0E6B0E0EEECFCE002C005900D92DA
S1130070A439B107D9F721E0A4E9B0E001C01D9289
S1130080AC37B207E1F70E9449000C9465060C9462
S113009000000E94F5020E94EC0280E192E00E94BE
S11300A0E7028FE690E00E944A0280E690E00E9418
S11300B04A020E94D30480E090E00895FC0181810B
S11300C0823C19F4109265000895833049F481E06C
S11300D08093300167EA70E080E690E00E943A0283
S11300E00895CF93DF93EC0180EC0E940303898190
S11300F00E9403038981833019F48A818093650007
S1130100E0E6F0E09581868198130BC06CEF70E017
S1130110CF010E943A0288E893E10E94C1058093CE
S11301206700DF91CF910895882349F080FD09C0CD
S113013090E086959F5F80FFFCCF892F08958FEF15
S1130140089580E008950E949400845008950F93C8
S11301501F93CF93DF93EC0180EA0E94030389810C
S11301600E9403038981873CD1F48B818130C9F5D6
S11301708A81982F907FA9F10E94A3009091650035
S1130180891749F08093660020E0482F61E080E2FF
S11301900E94070304C0682F80E10E94AF02898196
S11301A0883C71F481EA0E94030300E610E0F80140
S11301B085810E940303F801658180E20E94AF02F9
S11301C08981823071F48B819A8189130AC0C0E6D7
S11301D0D0E082958F708D8388E893E10E94C105F9
S11301E08F836CEF70E080E690E00E943A02DF912A
S11301F0CF911F910F910895CF93DF93EC0180EB82
S11302000E94030389810E94030389818430A9F435
S11302108A81813039F461E770E080E690E00E94E1
S11302203A020BC067EA70E080E690E00E943A026E
S11302306091650080E20E94AF028981873CC9F425
S11302408B818130B1F48A81982F9F7091F00E9444
S1130250940060916500681749F08093660020E07F
S1130260482F61E080E20E94070303C080E10E94FE
S1130270AF02DF91CF9108951F93CF93DF93D82FCF
S1130280162FC82FC295CF708C2F0E94E4028D2F99
S11302906C2F0E945906911108C0C11106C0212F6C
S11302A04D2F62EC81E00E940703DF91CF911F91F3
S11302B00895262F482F62E082E00E9407030895E4
S11302C0FC018181813C29F48CE391E00E94E002ED
S11302D00895823C89F480E00E94E40220E040E03A
S11302E063E080E20E9407036DE771E08FE690E02F
S11302F00E943A02109274000895CF93DF93FC0198
S11303002181213079F48281843060F4CFE6D0E019
S11303108E8368ED71E0CE010E943A026D8180E225
S11303200E94AF02DF91CF910895CF93DF93EC0148
S113033080E70E94030389810E9403038981853C2D
S113034089F48A81803171F44B814093740020E0F8
S113035063E080E20E9407036DE771E08FE690E0BE
S11303600E943A02DF91CF910895CF93DF93EC017D
S113037089810E9403038A8182958F700E94E4021E
S11303808981823091F48A819B8189130EC0CFE6E2
S1130390D0E082958F708E8365E971E0CE010E9472
S11303A03A026E8180E10E94AF02DF91CF910895FD
S11303B0CF93DF93EC0180E60E94030389810E94BE
S11303C003038981853C49F58A81803231F5EFE662
S11303D0F0E09581868198130CC06DE771E0CF0140
S11303E00E943A0220E040E064E082E00E940703B9
S11303F014C065EB71E08FE690E00E943A028091B0
S1130400750069E571E08295807F0E94CC0220E04E
S113041041E064E082E00E940703DF91CF910895F8
S1130420CF93DF93FC019081913049F4C8E8D0E088
S113043088E40E94030389918111FBCF08C09230A4
S113044031F420E0418161E080E20E940703DF9102
S1130450CF910895F89480912F018F5F80932F019D
S1130460089580912F01815080932F01811101C043
S1130470789408950F931F93CF93DF93EC018B012E
S11304800E942A021C830B83DF91CF911F910F914D
S11304900C943102E0917600F0917700A6E7B0E089
S11304A020E0E637F20729F0DF010190F081E02D2A
S11304B0F7CF8D939C93DC01ED93FC9308950F93F8
S11304C01F93CF93DF930E942A029091AD008091F5
S11304D0AE00981759F084E0989FE0011124C155AB
S11304E0DF4F9F5F9F719093AD0002C0C0E0D0E0EA
S11304F00E9431022097C9F0009176001091770094
S1130500F0E006371F0789F0D80112969C911297E4
S11305108881892331F01396ED91FC911497CE01D3
S11305200995F80100811181EBCFDF91CF911F91E3
S11305300F91089512BE8BE083BF8DE78CBF89B7FE
S1130540826089BF80E891E09BBD8ABD1DBC1CBC54
S11305501FBC8DE08EBD89B7806189BF0895CF939C
S1130560DF93D82FC62F0E942A026C2F70E08D2FA4
S11305708073660F771FFB01EC58FE4F9081982320
S113058011F494E09183FB01EC58FE4F8160808369
S1130590DF91CF910C94310280937C0010927F0004
S11305A0709381006093800090917B00981710F401
S11305B081E003C0891718F48FEF80937F000895BA
S11305C0BC0180E00C94CC0280933F010895909389
S11305D0360180933501089510BC8CE089B986E812
S11305E080BD88E98AB9789408958FEF87BB84BB6E
S11305F08ABB11BA0E94EC0285B7836085BF8BB7B2
S113060080648BBF08958CB95D9BFECF08950F93D2
S11306101F93CF93DF93C82F062FD42F122F0E943E
S11306202A028091AE00E82FF0E0AF014F5F5F4FE8
S11306304F7155272091AD0030E04217530771F4F4
S11306408FEF0E94030380E00E9403038FEF0E9458
S113065003038EED0E9403038DEAF9CFEE0FFF1F13
S1130660EE0FFF1FE155FF4F01831383D283C08335
S11306708F5F8F718093AE00DF91CF911F910F91A7
S11306800C943102DF92EF92FF920F931F93CF935A
S1130690DF93C4E7D1E000E010E0EE24E394F12C12
S11306A08981811124C0488140FF23C04E7F488343
S11306B0202F65EC80E10E9407038881409131017D
S11306C084FF0AC09701002E01C0220F0A94EAF7A2
S11306D0242B209331010DC0C701002E01C0880FC7
S11306E00A94EAF7809584238093310102C08150F3
S11306F089830F5F1F4F22960430110589F6DF911D
S1130700CF911F910F91FF90EF90DF900895DB013F
S11307108230B1F58C91982F9072282F2076D9F1E0
S113072021E0382F307184FF20E0992311F094E008
S113073001C090E08F70890F41E050E002C0440F87
S1130740551F8A95E2F78091330190913401BA01E3
S11307506095709586239723909334018093330199
S1130760332351F08091330190913401842B952BE4
S1130770909334018093330167EC81E00C94070378
S1130780833049F4E0913501F0913601309719F046
S1130790642FCD01099408959091AC00911105C086
S11307A08093AC001092AB0008954091AB004111CE
S11307B004C082508093AB0015C0E091AA00E417F6
S11307C098F421E02E0F2093AA00F0E0E456FF4FA6
S11307D08083421309C06CE970E0892F0E9487036B
S11307E01092AC001092AA000895CF9380919A00C1
S11307F090919B00019690939B0080939A00837044
S11308009927892B21F5809199008F5F8093990016
S11308108370A82FB0E0AA0FBB1FAC58BE4F11962F
S1130820EC9111979C9194FF03C094E09E1BE92FD7
S1130830F0E0EE57FF4F21E030E0A90102C0440F81
S1130840551F8A95E2F7CA019081892B85BB809157
S113085098008F5F8093980020913901222301F141
S11308608370622F70E040E150E0082E02C0440F14
S1130870551F0A94E2F746235723452B11F0809322
S11308803C01082E02C0759567950A94E2F760FD55
S113089080933A01822F807F19F090913D0101C02D
S11308A091E02F7019F020913B0101C021E080916B
S11308B03801811104C030917B003F7301C03FE3D4
S11308C080914001811103C080913F0101C087E004
S11308D080933E018091370160E4869FA00111243A
S11308E060E8969FC0011124842B832B88BB8091E0
S11308F03C0198E0899FA001112490913A0130E2D3
S1130900939FC0011124842B30913E01382B40E881
S1130910249FC0011124832B8BBB909152018091A1
S113092053019817B9F00E942A02E091520181E024
S11309308E0F80935201F0E0EC5AFE4FC0818091FB
S113094052018F71809352010E9431028C2F0E94B8
S1130950CC03E3CF80919600909197009C012F5F88
S11309603F4F30939700209396008F3F9F40C9F4E8
S1130970809130018823A9F084E00E94030386E07B
S11309800E94030385EA0E9403038AE50E9403038D
S1130990809132010E94030380913101CF910C9424
S11309A00303CF9108958AEC0E9403031092380147
S11309B010923D011092400110923B0110923701B8
S11309C01092750180E280937401109277018093F4
S11309D07601109279018093780110927B018093C3
S11309E07A018FE180937B0080937C000E949A02BD
S11309F020E040E061EC81E00E9407038EEF0E945A
S1130A0003030E945F020E94F503FBCF1F920F9223
S1130A100FB60F9211242F933F934F935F936F93CD
S1130A207F938F939F93AF93BF93EF93FF938091A3
S1130A303301909134019160909334018093330198
S1130A40409133015091340120E069EC80E10E942F
S1130A500703FF91EF91BF91AF919F918F917F9188
S1130A606F915F914F913F912F910F900FBE0F9017
S1130A701F9018951F920F920FB60F9211242F9367
S1130A803F938F939F93EF93FF935F9B1EC080913F
S1130A9053012091520190E001968F71992730E023
S1130AA08217930789F08CB1E091530191E09E0F76
S1130AB090935301F0E0EC5AFE4F808380915301F0
S1130AC08F7180935301E1CF5798FF91EF919F91DC
S1130AD08F913F912F910F900FBE0F901F901895FB
S1130AE01F920F920FB60F9211242F933F934F939F
S1130AF05F936F937F938F939F93AF93BF93EF9382
S1130B00FF93809195008F5F80939500909194005E
S1130B109F5F9093940060917D000E94590691110B
S1130B2014C090917B0060917C00961761F08091D5
S1130B307F00890F80937B00E0918000F091810019
S1130B40309709F0099510929500809194006CE01B
S1130B500E945906911104C0109294000E9442030D
S1130B60FF91EF91BF91AF919F918F917F916F9181
S1130B705F914F913F912F910F900FBE0F901F9057
S1130B801895FF920F931F93CF93DF93F090510129
S1130B902F2D30E0C0E0D0E0A9010C2E02C0559505
S1130BA047950A94E2F740FD18C08C010E942A027E
S1130BB021E030E00C2E01C0220F0A94EAF72F291D
S1130BC020935101FE01EE0FFF1FEF5BFE4F1183D7
S1130BD000830E9431028C2F05C02196C830D105B4
S1130BE0D9F68FEFDF91CF911F910F91FF90089568
S1130BF01F920F920FB60F921124CF92DF92FF92A1
S1130C000F931F932F933F934F935F936F937F9310
S1130C108F939F93AF93BF93CF93DF93EF93FF9300
S1130C2001E411E0C0E0D0E0CC24C394D12CF090D6
S1130C3051018F2D90E00C2E02C0959587950A9452
S1130C40E2F780FF18C0F8018081918101979183B8
S1130C508083892B81F420E040E068EC81E00E94ED
S1130C600703C6010C2E01C0880F0A94EAF7809589
S1130C70F822F092510121960E5F1F4FC830D10522
S1130C80B1F6FF91EF91DF91CF91BF91AF919F9119
S1130C908F917F916F915F914F913F912F911F9110
S1130CA00F91FF90DF90CF900F900FBE0F901F9089
S1130CB01895991B79E004C0991F961708F0961BA4
S1110CC0881F7A95C9F780950895F894FFCFA0
S1130CCE0000FF5E000000000000000000000000B5
S1130CDE00FF6001020076000000001F000400FF08
S1130CEE000000103070F048656C6C6F2D576F72F9
S1070CFE6C640A0014
S9030000FC
