S01600004C69667453696D756C6174696F6E2E737265635A
S11300000C942A000C94F0030C9447000C944700C1
S11300100C9447000C9447000C9447000C945A0429
S11300200C9447000C9447000C94AB040C944700C8
S11300300C9447000C9424040C9447000C9447003F
S11300400C9447000C9447000C9447000C94470010
S11300500C94470011241FBECFE5D8E0DEBFCDBF0E
S113006010E0A0E6B0E0E4E3FAE002C005900D92EF
S1130070AA38B107D9F721E0AAE8B0E001C01D927F
S1130080A237B207E1F70E9449000C9418050C94BA
S113009000000E94DF010E94D6018AEF90E00E94D6
S11300A0D10185E690E00E94340180E690E00E9450
S11300B034010E94BD0380E090E00895FC01818139
S11300C00E94ED016CED70E085E690E00E94240151
S11300D00895CF93DF93EC016EE570E080E690E045
S11300E00E9424018981873C21F487EC90E00E94DE
S11300F05E00DF91CF9108951F93CF93DF93D82FA4
S1130100162FC82FC295CF708C2F0E94CE018D2F31
S11301106C2F0E940C05911108C0C11106C0212F3B
S11301204D2F62EC81E00E94F101DF91CF911F918C
S11301300895262F482F62E082E00E94F10108957D
S1130140FC018181813C29F48CE790E00E94CA0182
S11301500895823C49F480E00E94CE0165EB70E092
S113016085E690E00E9424010895CF93DF93FC017B
S11301702181213091F48281843078F4C5E6D0E085
S11301808E836CED70E0CE010E9424018E8169E9BA
S113019070E08295807F0E94B601DF91CF9108952F
S11301A060916B0080E20E94990165EB70E085E646
S11301B090E00E9424010895CF93DF93EC0189819C
S11301C00E94ED018981823091F48A819B81891397
S11301D00EC0C5E6D0E082958F708E8360ED70E02E
S11301E0CE010E9424016E8180E10E949901DF9179
S11301F0CF910895CF93DF93FC019081913049F41E
S1130200CEE7D0E088E40E94ED0189918111FBCF13
S113021008C0923031F420E0418161E080E20E9424
S1130220F101DF91CF910895F894809125018F5FBA
S113023080932501089580912501815080932501A3
S1130240811101C0789408950F931F93CF93DF9386
S1130250EC018B010E9414011C830B83DF91CF916D
S11302601F910F910C941B01E0916C00F0916D00B3
S1130270ACE6B0E020E0EC36F20729F0DF010190B3
S1130280F081E02DF7CF8D939C93DC01ED93FC93EB
S113029008950F931F93CF93DF930E9414019091BD
S11302A0A3008091A400981759F084E0989FE0017E
S11302B01124CB55DF4F9F5F9F719093A30002C021
S11302C0C0E0D0E00E941B012097C9F000916C00AF
S11302D010916D00F0E00C361F0789F0D8011296DA
S11302E09C9112978881892331F01396ED91FC91AA
S11302F01497CE010995F80100811181EBCFDF91AC
S1130300CF911F910F91089512BE8BE083BF8DE7AB
S11303108CBF89B7826089BF80E891E09BBD8ABDAC
S11303201DBC1CBC1FBC8DE08EBD89B7806189BF1C
S11303300895CF93DF93D82FC62F0E9414016C2FFA
S113034070E08D2F8073660F771FFB01E659FE4F17
S11303509081982311F494E09183FB01E659FE4FB8
S113036081608083DF91CF910C941B018093720094
S113037010927500709377006093760090917100ED
S1130380981710F481E003C0891718F48FEF809355
S113039075000895BC0180E00C94B601809335018A
S11303A0089590932C0180932B01089510BC8CE048
S11303B089B986E880BD88E98AB9789408958FEF71
S11303C087BB84BB8ABB11BA0E94D60185B7836000
S11303D085BF8BB780648BBF08958CB95D9BFECFBE
S11303E008950F931F93CF93DF93C82F062FD42F15
S11303F0122F0E9414018091A400E82FF0E0AF01B5
S11304004F5F5F4F4F7155272091A30030E0421793
S1130410530771F48FEF0E94ED0180E00E94ED011B
S11304208FEF0E94ED018EED0E94ED018DEAF9CF70
S1130430EE0FFF1FEE0FFF1FEB55FF4F01831383DA
S1130440D283C0838F5F8F718093A400DF91CF919B
S11304501F910F910C941B01DF92EF92FF920F9367
S11304601F93CF93DF93CAE6D1E000E010E0EE24BF
S1130470E394F12C8981811124C0488140FF23C079
S11304804E7F4883202F65EC80E10E94F101888132
S11304904091270184FF0AC09701002E01C0220F5A
S11304A00A94EAF7242B209327010DC0C701002EDC
S11304B001C0880F0A94EAF780958423809327016A
S11304C002C0815089830F5F1F4F229604301105AB
S11304D089F6DF91CF911F910F91FF90EF90DF90FC
S11304E00895DB018230B1F58C91982F9072282FFA
S11304F02076D9F121E0382F307184FF20E0992350
S113050011F094E001C090E08F70890F41E050E059
S113051002C0440F551F8A95E2F7809129019091FA
S11305202A01BA01609570958623972390932A0136
S113053080932901332351F08091290190912A015C
S1130540842B952B90932A018093290167EC81E0F9
S11305500C94F101833049F4E0912B01F0912C01CA
S1130560309719F0642FCD01099408959091A20059
S1130570911105C08093A2001092A10008954091AA
S1130580A100411104C082508093A10015C0E091E4
S1130590A000E41798F421E02E0F2093A000F0E0CF
S11305A0EE56FF4F8083421309C062E970E0892F41
S11305B00E9471021092A2001092A0000895CF939D
S11305C08091900090919100019690939100809376
S11305D0900083709927892B21F580918F008F5F7C
S11305E080938F008370A82FB0E0AA0FBB1FA65979
S11305F0BE4F1196EC9111979C9194FF03C094E027
S11306009E1BE92FF0E0E858FF4F21E030E0A901FC
S113061002C0440F551F8A95E2F7CA019081892BC5
S113062085BB80918E008F5F80938E0020912F0177
S1130630222301F18370622F70E040E150E0082E24
S113064002C0440F551F0A94E2F746235723452B53
S113065011F080933201082E02C0759567950A94B3
S1130660E2F760FD80933001822F807F19F0909132
S1130670330101C091E02F7019F02091310101C0C4
S113068021E080912E01811104C0309171003F73EB
S113069001C03FE380913601811103C0809135018F
S11306A001C087E08093340180912D0160E4869F2E
S11306B0A001112460E8969FC0011124842B832B90
S11306C088BB8091320198E0899FA0011124909108
S11306D0300130E2939FC0011124842B3091340106
S11306E0382B40E8249FC0011124832B8BBB9091AD
S11306F04801809149019817B9F00E941401E091D2
S1130700480181E08E0F80934801F0E0E65BFE4FE4
S1130710C081809148018F71809348010E941B0120
S11307208C2F0E94B602E3CF80918C0090918D00B3
S11307309C012F5F3F4F30938D0020938C008F3F9F
S11307409F40C9F4809126018823A9F084E00E9487
S1130750ED0186E00E94ED0185EA0E94ED018AE543
S11307600E94ED01809128010E94ED0180912701F2
S1130770CF910C94ED01CF9108958AEC0E94ED0184
S113078010922E0110923301109236011092310111
S113079010922D0110926B0180E280936A011092F5
S11307A06D0180936C0110926F0180936E01109221
S11307B07101809370018FE18093710080937200C6
S11307C00E94840120E040E061EC81E00E94F1019C
S11307D08EEF0E94ED010E9449010E94DF02FBCFCF
S11307E01F920F920FB60F9211242F933F934F93A2
S11307F05F936F937F938F939F93AF93BF93EF9385
S1130800FF938091290190912A01916090932A018C
S1130810809329014091290150912A0120E069EC3B
S113082080E10E94F101FF91EF91BF91AF919F91FF
S11308308F917F916F915F914F913F912F910F9085
S11308400FBE0F901F9018951F920F920FB60F9224
S113085011242F933F938F939F93EF93FF935F9B69
S11308601EC0809149012091480190E001968F714A
S1130870992730E08217930789F08CB1E091490100
S113088091E09E0F90934901F0E0E65BFE4F808378
S1130890809149018F7180934901E1CF5798FF916D
S11308A0EF919F918F913F912F910F900FBE0F90D9
S11308B01F9018951F920F920FB60F9211242F9329
S11308C03F934F935F936F937F938F939F93AF93D4
S11308D0BF93EF93FF9380918B008F5F80938B0086
S11308E090918A009F5F90938A00609173000E94A8
S11308F00C05911114C090917100609172009617CB
S113090061F080917500890F80937100E091760009
S1130910F0917700309709F0099510928B0080913F
S11309208A006CE00E940C05911104C010928A00A8
S11309300E942C02FF91EF91BF91AF919F918F91F3
S11309407F916F915F914F913F912F910F900FBEC7
S11309500F901F9018951F920F920FB60F921124AB
S1130960CF92DF92FF920F931F932F933F934F9356
S11309705F936F937F938F939F93AF93BF93CF9323
S1130980DF93EF93FF9307E311E0C0E0D0E0CC24C2
S1130990C394D12CF09047018F2D90E00C2E02C00F
S11309A0959587950A94E2F780FF18C0F801808135
S11309B09181019791838083892B81F420E040E029
S11309C068EC81E00E94F101C6010C2E01C0880F81
S11309D00A94EAF78095F822F092470121960E5F77
S11309E01F4FC830D105B1F6FF91EF91DF91CF9140
S11309F0BF91AF919F918F917F916F915F914F9133
S1130A003F912F911F910F91FF90DF90CF900F9006
S1130A100FBE0F901F901895991B79E004C0991F81
S1130A20961708F0961B881F7A95C9F78095089544
S1070A30F894FFCF64
S1130A340000FF69000000FFA00002006C00000039
S1130A44001F000400FF000000103070F048656CC3
S10D0A546C6F2D576F726C640A007A
S9030000FC
