S01600004C69667453696D756C6174696F6E2E737265635A
S11300000C942A000C946E040C9447000C94470042
S11300100C9447000C9447000C9447000C94D804AB
S11300200C9447000C9447000C9460050C94470012
S11300300C9447000C94A2040C9447000C944700C1
S11300400C9447000C9447000C9447000C94470010
S11300500C94470011241FBECFE5D8E0DEBFCDBF0E
S113006010E0A0E6B0E0EEE9FBE002C005900D92DE
S1130070A439B107D9F721E0A4E9B0E001C01D9289
S1130080AC37B207E1F70E9449000C94CD050C94FB
S113009000000E945D020E94540288E791E00E94E1
S11300A04F028FE690E00E94B20180E690E00E9449
S11300B0B2010E943B0480E090E00895FC0181813C
S11300C0823C19F4109265000895833049F481E06C
S11300D08093300164E870E080E690E00E94A20121
S11300E00895882349F080FD09C090E086959F5FBC
S11300F080FFFCCF892F08958FEF089580E0089545
S11301000E947100845008950F931F93CF93DF933F
S1130110EC0180EA0E946B0289810E946B02898152
S1130120873C09F58B81813009F03FC08A81982F83
S1130130907FD9F10E94800090916500891749F061
S11301408093660020E0482F61E080E20E946F0205
S11301500AC0682F80E10E94170288E893E10E9498
S11301602905809367008981883C71F481EA0E94A3
S11301706B0200E610E0F80185810E946B02F80131
S1130180658180E20E9417028981823071F48B813B
S11301909A8189130AC0C0E6D0E082958F708D835E
S11301A088E893E10E9429058F83DF91CF911F9105
S11301B00F9108951F93CF93DF93D82F162FC82F35
S11301C0C295CF708C2F0E944C028D2F6C2F0E94F1
S11301D0C105911108C0C11106C0212F4D2F62EC39
S11301E081E00E946F02DF91CF911F910895262F25
S11301F0482F62E082E00E946F020895FC01818131
S1130200813C29F48AED90E00E9448020895823CE2
S113021089F480E00E944C0220E040E063E080E248
S11302200E946F026BE171E08FE690E00E94A201F0
S1130230109274000895CF93DF93FC012181213043
S113024079F48281843060F4CFE6D0E08E836FE36A
S113025071E0CE010E94A2016D8180E20E9417022A
S1130260DF91CF9108956091750080E20E9417029A
S11302706BE171E08FE690E00E94A2010895FC0119
S11302802181253CB1F48281803299F4EFE6F0E0DB
S113029095818681981769F06AE571E0CF010E9423
S11302A0A2018091750067EF70E08295807F0E94C3
S11302B034020895CF93DF93EC0189810E946B028D
S11302C08981823091F48A819B8189130EC0CFE6A3
S11302D0D0E082958F708E8363E371E0CE010E943B
S11302E0A2016E8180E10E941702DF91CF910895EF
S11302F0CF93DF93FC019081913049F4C8E8D0E0BA
S113030088E40E946B0289918111FBCF08C092306E
S113031031F420E0418161E080E20E946F02DF91CC
S1130320CF910895F89480912F018F5F80932F01CE
S1130330089580912F01815080932F01811101C074
S1130340789408950F931F93CF93DF93EC018B015F
S11303500E9492011C830B83DF91CF911F910F9117
S11303600C949901E0917600F0917700A6E7B0E053
S113037020E0E637F20729F0DF010190F081E02D5B
S1130380F7CF8D939C93DC01ED93FC9308950F9329
S11303901F93CF93DF930E9492019091AD008091BF
S11303A0AE00981759F084E0989FE0011124C155DC
S11303B0DF4F9F5F9F719093AD0002C0C0E0D0E01B
S11303C00E9499012097C9F000917600109177005E
S11303D0F0E006371F0789F0D80112969C91129716
S11303E08881892331F01396ED91FC911497CE0105
S11303F00995F80100811181EBCFDF91CF911F9115
S11304000F91089512BE8BE083BF8DE78CBF89B72F
S1130410826089BF80E891E09BBD8ABD1DBC1CBC85
S11304201FBC8DE08EBD89B7806189BF0895CF93CD
S1130430DF93D82FC62F0E9492016C2F70E08D2F6E
S11304408073660F771FFB01EC58FE4F9081982351
S113045011F494E09183FB01EC58FE4F816080839A
S1130460DF91CF910C94990180937C0010927F00CE
S1130470709381006093800090917B00981710F432
S113048081E003C0891718F48FEF80937F000895EB
S1130490BC0180E00C94340280933F010895909352
S11304A0360180933501089510BC8CE089B986E843
S11304B080BD88E98AB9789408958FEF87BB84BB9F
S11304C08ABB11BA0E94540285B7836085BF8BB77B
S11304D080648BBF08958CB95D9BFECF08950F9304
S11304E01F93CF93DF93C82F062FD42F122F0E9470
S11304F092018091AE00E82FF0E0AF014F5F5F4FB3
S11305004F7155272091AD0030E04217530771F425
S11305108FEF0E946B0280E00E946B028FEF0E94BB
S11305206B028EED0E946B028DEAF9CFEE0FFF1F76
S1130530EE0FFF1FE155FF4F01831383D283C08366
S11305408F5F8F718093AE00DF91CF911F910F91D8
S11305500C949901DF92EF92FF920F931F93CF9324
S1130560DF93C4E7D1E000E010E0EE24E394F12C43
S11305708981811124C0488140FF23C04E7F488374
S1130580202F65EC80E10E946F0288814091310147
S113059084FF0AC09701002E01C0220F0A94EAF7D3
S11305A0242B209331010DC0C701002E01C0880FF8
S11305B00A94EAF7809584238093310102C0815024
S11305C089830F5F1F4F22960430110589F6DF914E
S11305D0CF911F910F91FF90EF90DF900895DB0171
S11305E08230B1F58C91982F9072282F2076D9F112
S11305F021E0382F307184FF20E0992311F094E03A
S113060001C090E08F70890F41E050E002C0440FB8
S1130610551F8A95E2F78091330190913401BA0114
S113062060957095862397239093340180933301CA
S1130630332351F08091330190913401842B952B15
S1130640909334018093330167EC81E00C946F0242
S1130650833049F4E0913501F0913601309719F077
S1130660642FCD01099408959091AC00911105C0B7
S11306708093AC001092AB0008954091AB004111FF
S113068004C082508093AB0015C0E091AA00E41727
S113069098F421E02E0F2093AA00F0E0E456FF4FD7
S11306A08083421309C06CE970E0892F0E94EF0235
S11306B01092AC001092AA000895CF9380919A00F2
S11306C090919B00019690939B0080939A00837075
S11306D09927892B21F5809199008F5F8093990048
S11306E08370A82FB0E0AA0FBB1FAC58BE4F119661
S11306F0EC9111979C9194FF03C094E09E1BE92F09
S1130700F0E0EE57FF4F21E030E0A90102C0440FB2
S1130710551F8A95E2F7CA019081892B85BB809188
S113072098008F5F8093980020913901222301F172
S11307308370622F70E040E150E0082E02C0440F45
S1130740551F0A94E2F746235723452B11F0809353
S11307503C01082E02C0759567950A94E2F760FD86
S113076080933A01822F807F19F090913D0101C05E
S113077091E02F7019F020913B0101C021E080919C
S11307803801811104C030917B003F7301C03FE305
S113079080914001811103C080913F0101C087E035
S11307A080933E018091370160E4869FA00111246B
S11307B060E8969FC0011124842B832B88BB809111
S11307C03C0198E0899FA001112490913A0130E204
S11307D0939FC0011124842B30913E01382B40E8B3
S11307E0249FC0011124832B8BBB909152018091D3
S11307F053019817B9F00E949201E091520181E0EF
S11308008E0F80935201F0E0EC5AFE4FC08180912C
S113081052018F71809352010E9499018C2F0E9482
S11308203403E3CF80919600909197009C012F5F51
S11308303F4F30939700209396008F3F9F40C9F419
S1130840809130018823A9F084E00E946B0286E045
S11308500E946B0285EA0E946B028AE50E946B0289
S1130860809132010E946B0280913101CF910C94EE
S11308706B02CF9108958AEC0E946B0210923801AA
S113088010923D011092400110923B0110923701E9
S11308901092750180E28093740110927701809325
S11308A07601109279018093780110927B018093F4
S11308B07A018FE180937B0080937C000E94020286
S11308C020E040E061EC81E00E946F028EEF0E9424
S11308D06B020E94C7010E945D03FBCF1F920F921F
S11308E00FB60F9211242F933F934F935F936F93FF
S11308F07F938F939F93AF93BF93EF93FF938091D5
S113090033019091340191609093340180933301C9
S1130910409133015091340120E069EC80E10E9460
S11309206F02FF91EF91BF91AF919F918F917F9152
S11309306F915F914F913F912F910F900FBE0F9048
S11309401F9018951F920F920FB60F9211242F9398
S11309503F938F939F93EF93FF935F9B1EC0809170
S113096053012091520190E001968F71992730E054
S11309708217930789F08CB1E091530191E09E0FA7
S113098090935301F0E0EC5AFE4F80838091530121
S11309908F7180935301E1CF5798FF91EF919F910D
S11309A08F913F912F910F900FBE0F901F9018952C
S11309B01F920F920FB60F9211242F933F934F93D0
S11309C05F936F937F938F939F93AF93BF93EF93B3
S11309D0FF93809195008F5F809395009091940090
S11309E09F5F9093940060917D000E94C1059111D6
S11309F014C090917B0060917C00961761F0809107
S1130A007F00890F80937B00E0918000F09181004A
S1130A10309709F0099510929500809194006CE04C
S1130A200E94C105911104C0109294000E94AA0270
S1130A30FF91EF91BF91AF919F918F917F916F91B2
S1130A405F914F913F912F910F900FBE0F901F9088
S1130A501895FF920F931F93CF93DF93F09051015A
S1130A602F2D30E0C0E0D0E0A9010C2E02C0559536
S1130A7047950A94E2F740FD18C08C010E94920148
S1130A8021E030E00C2E01C0220F0A94EAF72F294E
S1130A9020935101FE01EE0FFF1FEF5BFE4F118308
S1130AA000830E9499018C2F05C02196C830D1057E
S1130AB0D9F68FEFDF91CF911F910F91FF90089599
S1130AC01F920F920FB60F921124CF92DF92FF92D2
S1130AD00F931F932F933F934F935F936F937F9342
S1130AE08F939F93AF93BF93CF93DF93EF93FF9332
S1130AF001E411E0C0E0D0E0CC24C394D12CF09008
S1130B0051018F2D90E00C2E02C0959587950A9483
S1130B10E2F780FF18C0F8018081918101979183E9
S1130B208083892B81F420E040E068EC81E00E941E
S1130B306F02C6010C2E01C0880F0A94EAF7809553
S1130B40F822F092510121960E5F1F4FC830D10553
S1130B50B1F6FF91EF91DF91CF91BF91AF919F914A
S1130B608F917F916F915F914F913F912F911F9141
S1130B700F91FF90DF90CF900F900FBE0F901F90BA
S1130B801895991B79E004C0991F961708F0961BD5
S1110B90881F7A95C9F780950895F894FFCFD1
S1130B9E0000FF5E000000000000000000000000E6
S1130BAE00FFFE00020076000000001F000400FF9C
S1130BBE000000103070F048656C6C6F2D576F722A
S1070BCE6C640A0045
S9030000FC
